{
  "contractName": "Faucet",
  "abi": [
    {
      "inputs": [],
      "stateMutability": "nonpayable",
      "type": "constructor"
    },
    {
      "anonymous": false,
      "inputs": [
        {
          "indexed": false,
          "internalType": "address",
          "name": "",
          "type": "address"
        },
        {
          "indexed": false,
          "internalType": "uint256",
          "name": "",
          "type": "uint256"
        }
      ],
      "name": "deposit",
      "type": "event"
    },
    {
      "anonymous": false,
      "inputs": [
        {
          "indexed": false,
          "internalType": "address",
          "name": "",
          "type": "address"
        },
        {
          "indexed": false,
          "internalType": "uint256",
          "name": "",
          "type": "uint256"
        }
      ],
      "name": "withdrawal",
      "type": "event"
    },
    {
      "inputs": [],
      "name": "faucetAddress",
      "outputs": [
        {
          "internalType": "address",
          "name": "",
          "type": "address"
        }
      ],
      "stateMutability": "view",
      "type": "function",
      "constant": true
    },
    {
      "inputs": [],
      "name": "fundContract",
      "outputs": [],
      "stateMutability": "payable",
      "type": "function",
      "payable": true
    },
    {
      "inputs": [
        {
          "internalType": "address",
          "name": "_destination",
          "type": "address"
        }
      ],
      "name": "getFakeEther",
      "outputs": [],
      "stateMutability": "nonpayable",
      "type": "function"
    },
    {
      "inputs": [],
      "name": "contractBalance",
      "outputs": [
        {
          "internalType": "uint256",
          "name": "",
          "type": "uint256"
        }
      ],
      "stateMutability": "view",
      "type": "function",
      "constant": true
    },
    {
      "inputs": [
        {
          "internalType": "address",
          "name": "_faucetAddress",
          "type": "address"
        }
      ],
      "name": "setFaucetAddress",
      "outputs": [],
      "stateMutability": "nonpayable",
      "type": "function"
    },
    {
      "inputs": [],
      "name": "selfDestruct",
      "outputs": [],
      "stateMutability": "nonpayable",
      "type": "function"
    }
  ],
  "bytecode": "0x608060405234801561001057600080fd5b50336000806101000a81548173ffffffffffffffffffffffffffffffffffffffff021916908373ffffffffffffffffffffffffffffffffffffffff160217905550610745806100606000396000f3fe6080604052600436106100555760003560e01c80638b7afe2e1461005a5780639cb8a26a14610085578063bd097e211461009c578063cb052400146100a6578063d3dc5c09146100d1578063f1e0510e146100fa575b600080fd5b34801561006657600080fd5b5061006f610123565b60405161007c919061058f565b60405180910390f35b34801561009157600080fd5b5061009a61012b565b005b6100a46101bc565b005b3480156100b257600080fd5b506100bb6101f7565b6040516100c8919061050b565b60405180910390f35b3480156100dd57600080fd5b506100f860048036038101906100f3919061047e565b61021d565b005b34801561010657600080fd5b50610121600480360381019061011c919061047e565b6103cd565b005b600047905090565b60008054906101000a900473ffffffffffffffffffffffffffffffffffffffff1673ffffffffffffffffffffffffffffffffffffffff163373ffffffffffffffffffffffffffffffffffffffff161461018357600080fd5b60008054906101000a900473ffffffffffffffffffffffffffffffffffffffff1673ffffffffffffffffffffffffffffffffffffffff16ff5b7f47e7ef24b3022e382e65b1298581281f0ae273ac4f76464efcf5b06769264f2f33346040516101ed929190610526565b60405180910390a1565b600160009054906101000a900473ffffffffffffffffffffffffffffffffffffffff1681565b67016345785d8a0000471015610268576040517f08c379a000000000000000000000000000000000000000000000000000000000815260040161025f9061056f565b60405180910390fd5b620151804261027791906105bb565b600260003373ffffffffffffffffffffffffffffffffffffffff1673ffffffffffffffffffffffffffffffffffffffff1681526020019081526020016000205411156102f8576040517f08c379a00000000000000000000000000000000000000000000000000000000081526004016102ef9061054f565b60405180910390fd5b600067016345785d8a000090507f5a6b26bafd3957bf06ea3b4915f51221953ed272573c779820e6e39df3e646cf3382604051610336929190610526565b60405180910390a18173ffffffffffffffffffffffffffffffffffffffff166108fc829081150290604051600060405180830381858888f19350505050158015610384573d6000803e3d6000fd5b5042600260003373ffffffffffffffffffffffffffffffffffffffff1673ffffffffffffffffffffffffffffffffffffffff168152602001908152602001600020819055505050565b60008054906101000a900473ffffffffffffffffffffffffffffffffffffffff1673ffffffffffffffffffffffffffffffffffffffff163373ffffffffffffffffffffffffffffffffffffffff161461042557600080fd5b80600160006101000a81548173ffffffffffffffffffffffffffffffffffffffff021916908373ffffffffffffffffffffffffffffffffffffffff16021790555050565b600081359050610478816106f8565b92915050565b60006020828403121561049057600080fd5b600061049e84828501610469565b91505092915050565b6104b0816105ef565b82525050565b60006104c3602c836105aa565b91506104ce8261065a565b604082019050919050565b60006104e66027836105aa565b91506104f1826106a9565b604082019050919050565b61050581610621565b82525050565b600060208201905061052060008301846104a7565b92915050565b600060408201905061053b60008301856104a7565b61054860208301846104fc565b9392505050565b60006020820190508181036000830152610568816104b6565b9050919050565b60006020820190508181036000830152610588816104d9565b9050919050565b60006020820190506105a460008301846104fc565b92915050565b600082825260208201905092915050565b60006105c682610621565b91506105d183610621565b9250828210156105e4576105e361062b565b5b828203905092915050565b60006105fa82610601565b9050919050565b600073ffffffffffffffffffffffffffffffffffffffff82169050919050565b6000819050919050565b7f4e487b7100000000000000000000000000000000000000000000000000000000600052601160045260246000fd5b7f596f75206d7573742077616974203120646179206265666f726520726571756560008201527f7374696e6720616761696e2e0000000000000000000000000000000000000000602082015250565b7f536f7272792c206e6f7420656e6f7567682066756e647320696e20746865206360008201527f6f6e747261637400000000000000000000000000000000000000000000000000602082015250565b610701816105ef565b811461070c57600080fd5b5056fea2646970667358221220f208a48cdbd58df349ea3dd8d60769d1982df70817e35f786078fe4a031be25c64736f6c63430008040033",
  "immutableReferences": {},
  "source": "// SPDX License-Identifier: MIT\r\n\r\npragma solidity ^0.8.4;\r\n\r\ncontract Faucet {\r\n    event deposit(address, uint256);\r\n    event withdrawal(address, uint256);\r\n\r\n    address payable owner;\r\n    address public faucetAddress;\r\n\r\n    mapping(address => uint256) coolOff;\r\n\r\n    constructor() {\r\n        owner = payable(msg.sender);\r\n    }\r\n\r\n    modifier onlyOwner() {\r\n        require(msg.sender == owner);\r\n        _; // this is called a 'merge wildcard'\r\n    }\r\n\r\n\r\n    function fundContract() public payable {\r\n        emit deposit(msg.sender, msg.value);\r\n    }\r\n\r\n    function getFakeEther(address _destination) public {\r\n        require(address(this).balance >= 0.1 ether, \"Sorry, not enough funds in the contract\");\r\n        require(coolOff[msg.sender] <= block.timestamp - 1 days, \"You must wait 1 day before requesting again.\");\r\n\r\n        uint256 amount = 1 * 10**17;\r\n        emit withdrawal(msg.sender, amount);\r\n        payable(_destination).transfer(amount);\r\n        coolOff[msg.sender] = block.timestamp;\r\n    }\r\n\r\n    function contractBalance() public view returns (uint256) {\r\n        return address(this).balance; //returns amount in wei\r\n    }\r\n\r\n    function setFaucetAddress(address _faucetAddress) external onlyOwner {\r\n        faucetAddress = _faucetAddress;\r\n    }\r\n\r\n    function selfDestruct() external onlyOwner {\r\n        selfdestruct(payable(owner));\r\n    }\r\n\r\n}\r\n",
  "sourcePath": "C:\\Users\\Misirov\\Desktop\\faucet_raw\\contracts\\Faucet.sol",
  "compiler": {
    "name": "solc",
    "version": "0.8.4+commit.c7e474f2.Emscripten.clang"
  },
  "schemaVersion": "3.4.3",
  "updatedAt": "2021-11-19T21:38:02.835Z",
  "networkType": "ethereum",
  "devdoc": {
    "kind": "dev",
    "methods": {},
    "version": 1
  },
  "userdoc": {
    "kind": "user",
    "methods": {},
    "version": 1
  }
}