{
  "contractName": "Number",
  "abi": [
    {
      "inputs": [
        {
          "internalType": "uint256",
          "name": "_num",
          "type": "uint256"
        }
      ],
      "name": "setNum",
      "outputs": [],
      "stateMutability": "nonpayable",
      "type": "function"
    },
    {
      "inputs": [],
      "name": "getNum",
      "outputs": [
        {
          "internalType": "uint256",
          "name": "",
          "type": "uint256"
        }
      ],
      "stateMutability": "view",
      "type": "function",
      "constant": true
    }
  ],
  "bytecode": "0x60806040526000805534801561001457600080fd5b5061012f806100246000396000f3fe6080604052348015600f57600080fd5b506004361060325760003560e01c806367e0badb146037578063cd16ecbf146051575b600080fd5b603d6069565b6040516048919060c2565b60405180910390f35b6067600480360381019060639190608f565b6072565b005b60008054905090565b8060008190555050565b60008135905060898160e5565b92915050565b60006020828403121560a057600080fd5b600060ac84828501607c565b91505092915050565b60bc8160db565b82525050565b600060208201905060d5600083018460b5565b92915050565b6000819050919050565b60ec8160db565b811460f657600080fd5b5056fea26469706673582212208f77c0fd2c3bb74d58e21a75cfc4baba7b29acf2b89c756344eb4a634534fef664736f6c63430008020033",
  "immutableReferences": {},
  "source": "//License-Identifier: MIT\r\n\r\npragma solidity ^0.8.2;\r\n\r\ncontract Number {\r\n\r\n    uint256 num = 0;\r\n\r\n    function setNum(uint256 _num)public {\r\n        num = _num;\r\n    }\r\n\r\n    function getNum()public view returns (uint256){\r\n        return num;\r\n    }\r\n\r\n}\r\n",
  "sourcePath": "C:\\Users\\Misirov\\Desktop\\test\\contracts\\number.sol",
  "compiler": {
    "name": "solc",
    "version": "0.8.2+commit.661d1103.Emscripten.clang"
  },
  "schemaVersion": "3.4.3",
  "updatedAt": "2021-10-21T21:05:49.041Z",
  "networkType": "ethereum",
  "devdoc": {
    "kind": "dev",
    "methods": {},
    "version": 1
  },
  "userdoc": {
    "kind": "user",
    "methods": {},
    "version": 1
  }
}